{
  "_format": "hh-sol-artifact-1",
  "contractName": "MyEpicNFT",
  "sourceName": "contracts/MyEpicNFT.sol",
  "abi": [
    {
      "inputs": [],
      "stateMutability": "nonpayable",
      "type": "constructor"
    },
    {
      "anonymous": false,
      "inputs": [
        {
          "indexed": true,
          "internalType": "address",
          "name": "owner",
          "type": "address"
        },
        {
          "indexed": true,
          "internalType": "address",
          "name": "approved",
          "type": "address"
        },
        {
          "indexed": true,
          "internalType": "uint256",
          "name": "tokenId",
          "type": "uint256"
        }
      ],
      "name": "Approval",
      "type": "event"
    },
    {
      "anonymous": false,
      "inputs": [
        {
          "indexed": true,
          "internalType": "address",
          "name": "owner",
          "type": "address"
        },
        {
          "indexed": true,
          "internalType": "address",
          "name": "operator",
          "type": "address"
        },
        {
          "indexed": false,
          "internalType": "bool",
          "name": "approved",
          "type": "bool"
        }
      ],
      "name": "ApprovalForAll",
      "type": "event"
    },
    {
      "anonymous": false,
      "inputs": [
        {
          "indexed": true,
          "internalType": "address",
          "name": "from",
          "type": "address"
        },
        {
          "indexed": true,
          "internalType": "address",
          "name": "to",
          "type": "address"
        },
        {
          "indexed": true,
          "internalType": "uint256",
          "name": "tokenId",
          "type": "uint256"
        }
      ],
      "name": "Transfer",
      "type": "event"
    },
    {
      "inputs": [],
      "name": "MAX_MINT_COUNT",
      "outputs": [
        {
          "internalType": "uint8",
          "name": "",
          "type": "uint8"
        }
      ],
      "stateMutability": "view",
      "type": "function"
    },
    {
      "inputs": [
        {
          "internalType": "address",
          "name": "to",
          "type": "address"
        },
        {
          "internalType": "uint256",
          "name": "tokenId",
          "type": "uint256"
        }
      ],
      "name": "approve",
      "outputs": [],
      "stateMutability": "nonpayable",
      "type": "function"
    },
    {
      "inputs": [
        {
          "internalType": "address",
          "name": "owner",
          "type": "address"
        }
      ],
      "name": "balanceOf",
      "outputs": [
        {
          "internalType": "uint256",
          "name": "",
          "type": "uint256"
        }
      ],
      "stateMutability": "view",
      "type": "function"
    },
    {
      "inputs": [
        {
          "internalType": "uint256",
          "name": "tokenId",
          "type": "uint256"
        }
      ],
      "name": "getApproved",
      "outputs": [
        {
          "internalType": "address",
          "name": "",
          "type": "address"
        }
      ],
      "stateMutability": "view",
      "type": "function"
    },
    {
      "inputs": [
        {
          "internalType": "address",
          "name": "owner",
          "type": "address"
        },
        {
          "internalType": "address",
          "name": "operator",
          "type": "address"
        }
      ],
      "name": "isApprovedForAll",
      "outputs": [
        {
          "internalType": "bool",
          "name": "",
          "type": "bool"
        }
      ],
      "stateMutability": "view",
      "type": "function"
    },
    {
      "inputs": [],
      "name": "makeAnEpicNFT",
      "outputs": [],
      "stateMutability": "nonpayable",
      "type": "function"
    },
    {
      "inputs": [
        {
          "internalType": "address",
          "name": "",
          "type": "address"
        }
      ],
      "name": "mintCount",
      "outputs": [
        {
          "internalType": "uint8",
          "name": "",
          "type": "uint8"
        }
      ],
      "stateMutability": "view",
      "type": "function"
    },
    {
      "inputs": [],
      "name": "name",
      "outputs": [
        {
          "internalType": "string",
          "name": "",
          "type": "string"
        }
      ],
      "stateMutability": "view",
      "type": "function"
    },
    {
      "inputs": [
        {
          "internalType": "uint256",
          "name": "tokenId",
          "type": "uint256"
        }
      ],
      "name": "ownerOf",
      "outputs": [
        {
          "internalType": "address",
          "name": "",
          "type": "address"
        }
      ],
      "stateMutability": "view",
      "type": "function"
    },
    {
      "inputs": [
        {
          "internalType": "uint256",
          "name": "tokenId",
          "type": "uint256"
        }
      ],
      "name": "pickRandomFirstWord",
      "outputs": [
        {
          "internalType": "string",
          "name": "",
          "type": "string"
        }
      ],
      "stateMutability": "view",
      "type": "function"
    },
    {
      "inputs": [
        {
          "internalType": "uint256",
          "name": "tokenId",
          "type": "uint256"
        }
      ],
      "name": "pickRandomSecondWord",
      "outputs": [
        {
          "internalType": "string",
          "name": "",
          "type": "string"
        }
      ],
      "stateMutability": "view",
      "type": "function"
    },
    {
      "inputs": [
        {
          "internalType": "uint256",
          "name": "tokenId",
          "type": "uint256"
        }
      ],
      "name": "pickRandomThirdWord",
      "outputs": [
        {
          "internalType": "string",
          "name": "",
          "type": "string"
        }
      ],
      "stateMutability": "view",
      "type": "function"
    },
    {
      "inputs": [
        {
          "internalType": "address",
          "name": "from",
          "type": "address"
        },
        {
          "internalType": "address",
          "name": "to",
          "type": "address"
        },
        {
          "internalType": "uint256",
          "name": "tokenId",
          "type": "uint256"
        }
      ],
      "name": "safeTransferFrom",
      "outputs": [],
      "stateMutability": "nonpayable",
      "type": "function"
    },
    {
      "inputs": [
        {
          "internalType": "address",
          "name": "from",
          "type": "address"
        },
        {
          "internalType": "address",
          "name": "to",
          "type": "address"
        },
        {
          "internalType": "uint256",
          "name": "tokenId",
          "type": "uint256"
        },
        {
          "internalType": "bytes",
          "name": "_data",
          "type": "bytes"
        }
      ],
      "name": "safeTransferFrom",
      "outputs": [],
      "stateMutability": "nonpayable",
      "type": "function"
    },
    {
      "inputs": [
        {
          "internalType": "address",
          "name": "operator",
          "type": "address"
        },
        {
          "internalType": "bool",
          "name": "approved",
          "type": "bool"
        }
      ],
      "name": "setApprovalForAll",
      "outputs": [],
      "stateMutability": "nonpayable",
      "type": "function"
    },
    {
      "inputs": [
        {
          "internalType": "bytes4",
          "name": "interfaceId",
          "type": "bytes4"
        }
      ],
      "name": "supportsInterface",
      "outputs": [
        {
          "internalType": "bool",
          "name": "",
          "type": "bool"
        }
      ],
      "stateMutability": "view",
      "type": "function"
    },
    {
      "inputs": [],
      "name": "symbol",
      "outputs": [
        {
          "internalType": "string",
          "name": "",
          "type": "string"
        }
      ],
      "stateMutability": "view",
      "type": "function"
    },
    {
      "inputs": [
        {
          "internalType": "uint256",
          "name": "tokenId",
          "type": "uint256"
        }
      ],
      "name": "tokenURI",
      "outputs": [
        {
          "internalType": "string",
          "name": "",
          "type": "string"
        }
      ],
      "stateMutability": "view",
      "type": "function"
    },
    {
      "inputs": [
        {
          "internalType": "address",
          "name": "from",
          "type": "address"
        },
        {
          "internalType": "address",
          "name": "to",
          "type": "address"
        },
        {
          "internalType": "uint256",
          "name": "tokenId",
          "type": "uint256"
        }
      ],
      "name": "transferFrom",
      "outputs": [],
      "stateMutability": "nonpayable",
      "type": "function"
    }
  ],
  "bytecode": "0x608060405260405180610160016040528061012f8152602001620043cf61012f91396008908051906020019062000038929190620004d2565b506040518060a001604052806040518060400160405280600581526020017f446567656e00000000000000000000000000000000000000000000000000000081525081526020016040518060400160405280600381526020017f47656d000000000000000000000000000000000000000000000000000000000081525081526020016040518060400160405280600881526020017f4869676862616e6b00000000000000000000000000000000000000000000000081525081526020016040518060400160405280600781526020017f4c6f7762616e6b0000000000000000000000000000000000000000000000000081525081526020016040518060400160405280600581526020017f536d61727400000000000000000000000000000000000000000000000000000081525081525060099060056200017b92919062000563565b506040518060a001604052806040518060400160405280600381526020017f4e6674000000000000000000000000000000000000000000000000000000000081525081526020016040518060400160405280600481526020017f4a7065670000000000000000000000000000000000000000000000000000000081525081526020016040518060400160405280600681526020017f536f6c616e61000000000000000000000000000000000000000000000000000081525081526020016040518060400160405280600881526020017f53686974636f696e00000000000000000000000000000000000000000000000081525081526020016040518060400160405280600381526020017f4574680000000000000000000000000000000000000000000000000000000000815250815250600a906005620002be92919062000563565b506040518060a001604052806040518060400160405280600681526020017f4d696e746572000000000000000000000000000000000000000000000000000081525081526020016040518060400160405280600781526020017f466f756e6465720000000000000000000000000000000000000000000000000081525081526020016040518060400160405280600381526020017f43454f000000000000000000000000000000000000000000000000000000000081525081526020016040518060400160405280600681526020017f547261646572000000000000000000000000000000000000000000000000000081525081526020016040518060400160405280600581526020017f5768616c65000000000000000000000000000000000000000000000000000000815250815250600b9060056200040192919062000563565b506032600c60006101000a81548160ff021916908360ff1602179055503480156200042b57600080fd5b506040518060400160405280601081526020017f596f75722043727970746f20526f6c65000000000000000000000000000000008152506040518060400160405280600381526020017f59435200000000000000000000000000000000000000000000000000000000008152508160009080519060200190620004b0929190620004d2565b508060019080519060200190620004c9929190620004d2565b505050620006bc565b828054620004e09062000686565b90600052602060002090601f01602090048101928262000504576000855562000550565b82601f106200051f57805160ff191683800117855562000550565b8280016001018555821562000550579182015b828111156200054f57825182559160200191906001019062000532565b5b5090506200055f9190620005ca565b5090565b828054828255906000526020600020908101928215620005b7579160200282015b82811115620005b6578251829080519060200190620005a5929190620004d2565b509160200191906001019062000584565b5b509050620005c69190620005e9565b5090565b5b80821115620005e5576000816000905550600101620005cb565b5090565b5b808211156200060d576000818162000603919062000611565b50600101620005ea565b5090565b5080546200061f9062000686565b6000825580601f1062000633575062000654565b601f016020900490600052602060002090810190620006539190620005ca565b5b50565b7f4e487b7100000000000000000000000000000000000000000000000000000000600052602260045260246000fd5b600060028204905060018216806200069f57607f821691505b60208210811415620006b657620006b562000657565b5b50919050565b613d0380620006cc6000396000f3fe608060405234801561001057600080fd5b50600436106101215760003560e01c806395d89b41116100ad578063c87b56dd11610071578063c87b56dd1461033e578063cdf653061461036e578063de9d132f1461038c578063e985e9c514610396578063ed9ec888146103c657610121565b806395d89b4114610288578063a22cb465146102a6578063b187301f146102c2578063b88d4fde146102f2578063c575757a1461030e57610121565b806323b872dd116100f457806323b872dd146101c05780632de38d68146101dc57806342842e0e1461020c5780636352211e1461022857806370a082311461025857610121565b806301ffc9a71461012657806306fdde0314610156578063081812fc14610174578063095ea7b3146101a4575b600080fd5b610140600480360381019061013b9190612373565b6103f6565b60405161014d91906123bb565b60405180910390f35b61015e6104d8565b60405161016b919061246f565b60405180910390f35b61018e600480360381019061018991906124c7565b61056a565b60405161019b9190612535565b60405180910390f35b6101be60048036038101906101b9919061257c565b6105ef565b005b6101da60048036038101906101d591906125bc565b610707565b005b6101f660048036038101906101f191906124c7565b610767565b604051610203919061246f565b60405180910390f35b610226600480360381019061022191906125bc565b61085f565b005b610242600480360381019061023d91906124c7565b61087f565b60405161024f9190612535565b60405180910390f35b610272600480360381019061026d919061260f565b610931565b60405161027f919061264b565b60405180910390f35b6102906109e9565b60405161029d919061246f565b60405180910390f35b6102c060048036038101906102bb9190612692565b610a7b565b005b6102dc60048036038101906102d791906124c7565b610a91565b6040516102e9919061246f565b60405180910390f35b61030c60048036038101906103079190612807565b610b89565b005b610328600480360381019061032391906124c7565b610beb565b604051610335919061246f565b60405180910390f35b610358600480360381019061035391906124c7565b610ce3565b604051610365919061246f565b60405180910390f35b610376610e35565b60405161038391906128a6565b60405180910390f35b610394610e48565b005b6103b060048036038101906103ab91906128c1565b611128565b6040516103bd91906123bb565b60405180910390f35b6103e060048036038101906103db919061260f565b6111bc565b6040516103ed91906128a6565b60405180910390f35b60007f80ac58cd000000000000000000000000000000000000000000000000000000007bffffffffffffffffffffffffffffffffffffffffffffffffffffffff1916827bffffffffffffffffffffffffffffffffffffffffffffffffffffffff191614806104c157507f5b5e139f000000000000000000000000000000000000000000000000000000007bffffffffffffffffffffffffffffffffffffffffffffffffffffffff1916827bffffffffffffffffffffffffffffffffffffffffffffffffffffffff1916145b806104d157506104d0826111dc565b5b9050919050565b6060600080546104e790612930565b80601f016020809104026020016040519081016040528092919081815260200182805461051390612930565b80156105605780601f1061053557610100808354040283529160200191610560565b820191906000526020600020905b81548152906001019060200180831161054357829003601f168201915b5050505050905090565b600061057582611246565b6105b4576040517f08c379a00000000000000000000000000000000000000000000000000000000081526004016105ab906129d4565b60405180910390fd5b6004600083815260200190815260200160002060009054906101000a900473ffffffffffffffffffffffffffffffffffffffff169050919050565b60006105fa8261087f565b90508073ffffffffffffffffffffffffffffffffffffffff168373ffffffffffffffffffffffffffffffffffffffff16141561066b576040517f08c379a000000000000000000000000000000000000000000000000000000000815260040161066290612a66565b60405180910390fd5b8073ffffffffffffffffffffffffffffffffffffffff1661068a6112b2565b73ffffffffffffffffffffffffffffffffffffffff1614806106b957506106b8816106b36112b2565b611128565b5b6106f8576040517f08c379a00000000000000000000000000000000000000000000000000000000081526004016106ef90612af8565b60405180910390fd5b61070283836112ba565b505050565b6107186107126112b2565b82611373565b610757576040517f08c379a000000000000000000000000000000000000000000000000000000000815260040161074e90612b8a565b60405180910390fd5b610762838383611451565b505050565b6060600061079b610777846116b8565b6040516020016107879190612c32565b604051602081830303815290604052611819565b9050600980549050816107ae9190612c83565b9050600981815481106107c4576107c3612cb4565b5b9060005260206000200180546107d990612930565b80601f016020809104026020016040519081016040528092919081815260200182805461080590612930565b80156108525780601f1061082757610100808354040283529160200191610852565b820191906000526020600020905b81548152906001019060200180831161083557829003601f168201915b5050505050915050919050565b61087a83838360405180602001604052806000815250610b89565b505050565b6000806002600084815260200190815260200160002060009054906101000a900473ffffffffffffffffffffffffffffffffffffffff169050600073ffffffffffffffffffffffffffffffffffffffff168173ffffffffffffffffffffffffffffffffffffffff161415610928576040517f08c379a000000000000000000000000000000000000000000000000000000000815260040161091f90612d55565b60405180910390fd5b80915050919050565b60008073ffffffffffffffffffffffffffffffffffffffff168273ffffffffffffffffffffffffffffffffffffffff1614156109a2576040517f08c379a000000000000000000000000000000000000000000000000000000000815260040161099990612de7565b60405180910390fd5b600360008373ffffffffffffffffffffffffffffffffffffffff1673ffffffffffffffffffffffffffffffffffffffff168152602001908152602001600020549050919050565b6060600180546109f890612930565b80601f0160208091040260200160405190810160405280929190818152602001828054610a2490612930565b8015610a715780601f10610a4657610100808354040283529160200191610a71565b820191906000526020600020905b815481529060010190602001808311610a5457829003601f168201915b5050505050905090565b610a8d610a866112b2565b8383611854565b5050565b60606000610ac5610aa1846116b8565b604051602001610ab19190612e53565b604051602081830303815290604052611819565b9050600a8054905081610ad89190612c83565b9050600a8181548110610aee57610aed612cb4565b5b906000526020600020018054610b0390612930565b80601f0160208091040260200160405190810160405280929190818152602001828054610b2f90612930565b8015610b7c5780601f10610b5157610100808354040283529160200191610b7c565b820191906000526020600020905b815481529060010190602001808311610b5f57829003601f168201915b5050505050915050919050565b610b9a610b946112b2565b83611373565b610bd9576040517f08c379a0000000000000000000000000000000000000000000000000000000008152600401610bd090612b8a565b60405180910390fd5b610be5848484846119c1565b50505050565b60606000610c1f610bfb846116b8565b604051602001610c0b9190612ec1565b604051602081830303815290604052611819565b9050600b8054905081610c329190612c83565b9050600b8181548110610c4857610c47612cb4565b5b906000526020600020018054610c5d90612930565b80601f0160208091040260200160405190810160405280929190818152602001828054610c8990612930565b8015610cd65780601f10610cab57610100808354040283529160200191610cd6565b820191906000526020600020905b815481529060010190602001808311610cb957829003601f168201915b5050505050915050919050565b6060610cee82611246565b610d2d576040517f08c379a0000000000000000000000000000000000000000000000000000000008152600401610d2490612f55565b60405180910390fd5b6000600660008481526020019081526020016000208054610d4d90612930565b80601f0160208091040260200160405190810160405280929190818152602001828054610d7990612930565b8015610dc65780601f10610d9b57610100808354040283529160200191610dc6565b820191906000526020600020905b815481529060010190602001808311610da957829003601f168201915b505050505090506000610dd7611a1d565b9050600081511415610ded578192505050610e30565b600082511115610e22578082604051602001610e0a929190612f75565b60405160208183030381529060405292505050610e30565b610e2b84611a34565b925050505b919050565b600c60009054906101000a900460ff1681565b600c60009054906101000a900460ff1660ff16600d60003373ffffffffffffffffffffffffffffffffffffffff1673ffffffffffffffffffffffffffffffffffffffff16815260200190815260200160002060009054906101000a900460ff1660ff1610610eeb576040517f08c379a0000000000000000000000000000000000000000000000000000000008152600401610ee29061300b565b60405180910390fd5b6000610ef76007611adb565b90506000610f0482610767565b90506000610f1183610a91565b90506000610f1e84610beb565b90506000838383604051602001610f379392919061302b565b60405160208183030381529060405290506000600882604051602001610f5e92919061313c565b60405160208183030381529060405290506000610fa383610f7e84611ae9565b604051602001610f8f9291906132c1565b604051602081830303815290604052611ae9565b9050600081604051602001610fb89190613352565b60405160208183030381529060405290506110076040518060400160405280601581526020017f0a2d2d2d2d2d2d2d2d2d2d2d2d2d2d2d2d2d2d2d2d0000000000000000000000815250611c62565b61102f8160405160200161101b91906133e6565b604051602081830303815290604052611c62565b61106d6040518060400160405280601581526020017f2d2d2d2d2d2d2d2d2d2d2d2d2d2d2d2d2d2d2d2d0a0000000000000000000000815250611c62565b6110773389611cfb565b6110818882611d19565b61108b6007611d8d565b6110ae604051806060016040528060278152602001613ca7602791398933611da3565b600d60003373ffffffffffffffffffffffffffffffffffffffff1673ffffffffffffffffffffffffffffffffffffffff168152602001908152602001600020600081819054906101000a900460ff1661110690613437565b91906101000a81548160ff021916908360ff1602179055505050505050505050565b6000600560008473ffffffffffffffffffffffffffffffffffffffff1673ffffffffffffffffffffffffffffffffffffffff16815260200190815260200160002060008373ffffffffffffffffffffffffffffffffffffffff1673ffffffffffffffffffffffffffffffffffffffff16815260200190815260200160002060009054906101000a900460ff16905092915050565b600d6020528060005260406000206000915054906101000a900460ff1681565b60007f01ffc9a7000000000000000000000000000000000000000000000000000000007bffffffffffffffffffffffffffffffffffffffffffffffffffffffff1916827bffffffffffffffffffffffffffffffffffffffffffffffffffffffff1916149050919050565b60008073ffffffffffffffffffffffffffffffffffffffff166002600084815260200190815260200160002060009054906101000a900473ffffffffffffffffffffffffffffffffffffffff1673ffffffffffffffffffffffffffffffffffffffff1614159050919050565b600033905090565b816004600083815260200190815260200160002060006101000a81548173ffffffffffffffffffffffffffffffffffffffff021916908373ffffffffffffffffffffffffffffffffffffffff160217905550808273ffffffffffffffffffffffffffffffffffffffff1661132d8361087f565b73ffffffffffffffffffffffffffffffffffffffff167f8c5be1e5ebec7d5bd14f71427d1e84f3dd0314c0f7b2291e5b200ac8c7c3b92560405160405180910390a45050565b600061137e82611246565b6113bd576040517f08c379a00000000000000000000000000000000000000000000000000000000081526004016113b4906134d3565b60405180910390fd5b60006113c88361087f565b90508073ffffffffffffffffffffffffffffffffffffffff168473ffffffffffffffffffffffffffffffffffffffff16148061143757508373ffffffffffffffffffffffffffffffffffffffff1661141f8461056a565b73ffffffffffffffffffffffffffffffffffffffff16145b8061144857506114478185611128565b5b91505092915050565b8273ffffffffffffffffffffffffffffffffffffffff166114718261087f565b73ffffffffffffffffffffffffffffffffffffffff16146114c7576040517f08c379a00000000000000000000000000000000000000000000000000000000081526004016114be90613565565b60405180910390fd5b600073ffffffffffffffffffffffffffffffffffffffff168273ffffffffffffffffffffffffffffffffffffffff161415611537576040517f08c379a000000000000000000000000000000000000000000000000000000000815260040161152e906135f7565b60405180910390fd5b611542838383611e42565b61154d6000826112ba565b6001600360008573ffffffffffffffffffffffffffffffffffffffff1673ffffffffffffffffffffffffffffffffffffffff168152602001908152602001600020600082825461159d9190613617565b925050819055506001600360008473ffffffffffffffffffffffffffffffffffffffff1673ffffffffffffffffffffffffffffffffffffffff16815260200190815260200160002060008282546115f4919061364b565b92505081905550816002600083815260200190815260200160002060006101000a81548173ffffffffffffffffffffffffffffffffffffffff021916908373ffffffffffffffffffffffffffffffffffffffff160217905550808273ffffffffffffffffffffffffffffffffffffffff168473ffffffffffffffffffffffffffffffffffffffff167fddf252ad1be2c89b69c2b068fc378daa952ba7f163c4a11628f55a4df523b3ef60405160405180910390a46116b3838383611e47565b505050565b60606000821415611700576040518060400160405280600181526020017f30000000000000000000000000000000000000000000000000000000000000008152509050611814565b600082905060005b6000821461173257808061171b906136a1565b915050600a8261172b91906136ea565b9150611708565b60008167ffffffffffffffff81111561174e5761174d6126dc565b5b6040519080825280601f01601f1916602001820160405280156117805781602001600182028036833780820191505090505b5090505b6000851461180d576001826117999190613617565b9150600a856117a89190612c83565b60306117b4919061364b565b60f81b8183815181106117ca576117c9612cb4565b5b60200101907effffffffffffffffffffffffffffffffffffffffffffffffffffffffffffff1916908160001a905350600a8561180691906136ea565b9450611784565b8093505050505b919050565b60008141434244604051602001611834959493929190613796565b6040516020818303038152906040528051906020012060001c9050919050565b8173ffffffffffffffffffffffffffffffffffffffff168373ffffffffffffffffffffffffffffffffffffffff1614156118c3576040517f08c379a00000000000000000000000000000000000000000000000000000000081526004016118ba9061383d565b60405180910390fd5b80600560008573ffffffffffffffffffffffffffffffffffffffff1673ffffffffffffffffffffffffffffffffffffffff16815260200190815260200160002060008473ffffffffffffffffffffffffffffffffffffffff1673ffffffffffffffffffffffffffffffffffffffff16815260200190815260200160002060006101000a81548160ff0219169083151502179055508173ffffffffffffffffffffffffffffffffffffffff168373ffffffffffffffffffffffffffffffffffffffff167f17307eab39ab6107e8899845ad3d59bd9653f200f220920489ca2b5937696c31836040516119b491906123bb565b60405180910390a3505050565b6119cc848484611451565b6119d884848484611e4c565b611a17576040517f08c379a0000000000000000000000000000000000000000000000000000000008152600401611a0e906138cf565b60405180910390fd5b50505050565b606060405180602001604052806000815250905090565b6060611a3f82611246565b611a7e576040517f08c379a0000000000000000000000000000000000000000000000000000000008152600401611a7590613961565b60405180910390fd5b6000611a88611a1d565b90506000815111611aa85760405180602001604052806000815250611ad3565b80611ab2846116b8565b604051602001611ac3929190612f75565b6040516020818303038152906040525b915050919050565b600081600001549050919050565b6060600082511415611b0c57604051806020016040528060008152509050611c5d565b6000604051806060016040528060408152602001613c676040913990506000600360028551611b3b919061364b565b611b4591906136ea565b6004611b519190613981565b90506000602082611b62919061364b565b67ffffffffffffffff811115611b7b57611b7a6126dc565b5b6040519080825280601f01601f191660200182016040528015611bad5781602001600182028036833780820191505090505b509050818152600183018586518101602084015b81831015611c1c576003830192508251603f8160121c168501518253600182019150603f81600c1c168501518253600182019150603f8160061c168501518253600182019150603f8116850151825360018201915050611bc1565b600389510660018114611c365760028114611c4657611c51565b613d3d60f01b6002830352611c51565b603d60f81b60018303525b50505050508093505050505b919050565b611cf881604051602401611c76919061246f565b6040516020818303038152906040527f41304fac000000000000000000000000000000000000000000000000000000007bffffffffffffffffffffffffffffffffffffffffffffffffffffffff19166020820180517bffffffffffffffffffffffffffffffffffffffffffffffffffffffff8381831617835250505050611fe3565b50565b611d1582826040518060200160405280600081525061200c565b5050565b611d2282611246565b611d61576040517f08c379a0000000000000000000000000000000000000000000000000000000008152600401611d5890613a4d565b60405180910390fd5b80600660008481526020019081526020016000209080519060200190611d88929190612264565b505050565b6001816000016000828254019250508190555050565b611e3d838383604051602401611dbb93929190613a6d565b6040516020818303038152906040527fe3849f79000000000000000000000000000000000000000000000000000000007bffffffffffffffffffffffffffffffffffffffffffffffffffffffff19166020820180517bffffffffffffffffffffffffffffffffffffffffffffffffffffffff8381831617835250505050611fe3565b505050565b505050565b505050565b6000611e6d8473ffffffffffffffffffffffffffffffffffffffff16612067565b15611fd6578373ffffffffffffffffffffffffffffffffffffffff1663150b7a02611e966112b2565b8786866040518563ffffffff1660e01b8152600401611eb89493929190613b00565b602060405180830381600087803b158015611ed257600080fd5b505af1925050508015611f0357506040513d601f19601f82011682018060405250810190611f009190613b61565b60015b611f86573d8060008114611f33576040519150601f19603f3d011682016040523d82523d6000602084013e611f38565b606091505b50600081511415611f7e576040517f08c379a0000000000000000000000000000000000000000000000000000000008152600401611f75906138cf565b60405180910390fd5b805181602001fd5b63150b7a0260e01b7bffffffffffffffffffffffffffffffffffffffffffffffffffffffff1916817bffffffffffffffffffffffffffffffffffffffffffffffffffffffff191614915050611fdb565b600190505b949350505050565b60008151905060006a636f6e736f6c652e6c6f679050602083016000808483855afa5050505050565b612016838361208a565b6120236000848484611e4c565b612062576040517f08c379a0000000000000000000000000000000000000000000000000000000008152600401612059906138cf565b60405180910390fd5b505050565b6000808273ffffffffffffffffffffffffffffffffffffffff163b119050919050565b600073ffffffffffffffffffffffffffffffffffffffff168273ffffffffffffffffffffffffffffffffffffffff1614156120fa576040517f08c379a00000000000000000000000000000000000000000000000000000000081526004016120f190613bda565b60405180910390fd5b61210381611246565b15612143576040517f08c379a000000000000000000000000000000000000000000000000000000000815260040161213a90613c46565b60405180910390fd5b61214f60008383611e42565b6001600360008473ffffffffffffffffffffffffffffffffffffffff1673ffffffffffffffffffffffffffffffffffffffff168152602001908152602001600020600082825461219f919061364b565b92505081905550816002600083815260200190815260200160002060006101000a81548173ffffffffffffffffffffffffffffffffffffffff021916908373ffffffffffffffffffffffffffffffffffffffff160217905550808273ffffffffffffffffffffffffffffffffffffffff16600073ffffffffffffffffffffffffffffffffffffffff167fddf252ad1be2c89b69c2b068fc378daa952ba7f163c4a11628f55a4df523b3ef60405160405180910390a461226060008383611e47565b5050565b82805461227090612930565b90600052602060002090601f01602090048101928261229257600085556122d9565b82601f106122ab57805160ff19168380011785556122d9565b828001600101855582156122d9579182015b828111156122d85782518255916020019190600101906122bd565b5b5090506122e691906122ea565b5090565b5b808211156123035760008160009055506001016122eb565b5090565b6000604051905090565b600080fd5b600080fd5b60007fffffffff0000000000000000000000000000000000000000000000000000000082169050919050565b6123508161231b565b811461235b57600080fd5b50565b60008135905061236d81612347565b92915050565b60006020828403121561238957612388612311565b5b60006123978482850161235e565b91505092915050565b60008115159050919050565b6123b5816123a0565b82525050565b60006020820190506123d060008301846123ac565b92915050565b600081519050919050565b600082825260208201905092915050565b60005b838110156124105780820151818401526020810190506123f5565b8381111561241f576000848401525b50505050565b6000601f19601f8301169050919050565b6000612441826123d6565b61244b81856123e1565b935061245b8185602086016123f2565b61246481612425565b840191505092915050565b600060208201905081810360008301526124898184612436565b905092915050565b6000819050919050565b6124a481612491565b81146124af57600080fd5b50565b6000813590506124c18161249b565b92915050565b6000602082840312156124dd576124dc612311565b5b60006124eb848285016124b2565b91505092915050565b600073ffffffffffffffffffffffffffffffffffffffff82169050919050565b600061251f826124f4565b9050919050565b61252f81612514565b82525050565b600060208201905061254a6000830184612526565b92915050565b61255981612514565b811461256457600080fd5b50565b60008135905061257681612550565b92915050565b6000806040838503121561259357612592612311565b5b60006125a185828601612567565b92505060206125b2858286016124b2565b9150509250929050565b6000806000606084860312156125d5576125d4612311565b5b60006125e386828701612567565b93505060206125f486828701612567565b9250506040612605868287016124b2565b9150509250925092565b60006020828403121561262557612624612311565b5b600061263384828501612567565b91505092915050565b61264581612491565b82525050565b6000602082019050612660600083018461263c565b92915050565b61266f816123a0565b811461267a57600080fd5b50565b60008135905061268c81612666565b92915050565b600080604083850312156126a9576126a8612311565b5b60006126b785828601612567565b92505060206126c88582860161267d565b9150509250929050565b600080fd5b600080fd5b7f4e487b7100000000000000000000000000000000000000000000000000000000600052604160045260246000fd5b61271482612425565b810181811067ffffffffffffffff82111715612733576127326126dc565b5b80604052505050565b6000612746612307565b9050612752828261270b565b919050565b600067ffffffffffffffff821115612772576127716126dc565b5b61277b82612425565b9050602081019050919050565b82818337600083830152505050565b60006127aa6127a584612757565b61273c565b9050828152602081018484840111156127c6576127c56126d7565b5b6127d1848285612788565b509392505050565b600082601f8301126127ee576127ed6126d2565b5b81356127fe848260208601612797565b91505092915050565b6000806000806080858703121561282157612820612311565b5b600061282f87828801612567565b945050602061284087828801612567565b9350506040612851878288016124b2565b925050606085013567ffffffffffffffff81111561287257612871612316565b5b61287e878288016127d9565b91505092959194509250565b600060ff82169050919050565b6128a08161288a565b82525050565b60006020820190506128bb6000830184612897565b92915050565b600080604083850312156128d8576128d7612311565b5b60006128e685828601612567565b92505060206128f785828601612567565b9150509250929050565b7f4e487b7100000000000000000000000000000000000000000000000000000000600052602260045260246000fd5b6000600282049050600182168061294857607f821691505b6020821081141561295c5761295b612901565b5b50919050565b7f4552433732313a20617070726f76656420717565727920666f72206e6f6e657860008201527f697374656e7420746f6b656e0000000000000000000000000000000000000000602082015250565b60006129be602c836123e1565b91506129c982612962565b604082019050919050565b600060208201905081810360008301526129ed816129b1565b9050919050565b7f4552433732313a20617070726f76616c20746f2063757272656e74206f776e6560008201527f7200000000000000000000000000000000000000000000000000000000000000602082015250565b6000612a506021836123e1565b9150612a5b826129f4565b604082019050919050565b60006020820190508181036000830152612a7f81612a43565b9050919050565b7f4552433732313a20617070726f76652063616c6c6572206973206e6f74206f7760008201527f6e6572206e6f7220617070726f76656420666f7220616c6c0000000000000000602082015250565b6000612ae26038836123e1565b9150612aed82612a86565b604082019050919050565b60006020820190508181036000830152612b1181612ad5565b9050919050565b7f4552433732313a207472616e736665722063616c6c6572206973206e6f74206f60008201527f776e6572206e6f7220617070726f766564000000000000000000000000000000602082015250565b6000612b746031836123e1565b9150612b7f82612b18565b604082019050919050565b60006020820190508181036000830152612ba381612b67565b9050919050565b600081905092915050565b7f46495253545f574f524400000000000000000000000000000000000000000000600082015250565b6000612beb600a83612baa565b9150612bf682612bb5565b600a82019050919050565b6000612c0c826123d6565b612c168185612baa565b9350612c268185602086016123f2565b80840191505092915050565b6000612c3d82612bde565b9150612c498284612c01565b915081905092915050565b7f4e487b7100000000000000000000000000000000000000000000000000000000600052601260045260246000fd5b6000612c8e82612491565b9150612c9983612491565b925082612ca957612ca8612c54565b5b828206905092915050565b7f4e487b7100000000000000000000000000000000000000000000000000000000600052603260045260246000fd5b7f4552433732313a206f776e657220717565727920666f72206e6f6e657869737460008201527f656e7420746f6b656e0000000000000000000000000000000000000000000000602082015250565b6000612d3f6029836123e1565b9150612d4a82612ce3565b604082019050919050565b60006020820190508181036000830152612d6e81612d32565b9050919050565b7f4552433732313a2062616c616e636520717565727920666f7220746865207a6560008201527f726f206164647265737300000000000000000000000000000000000000000000602082015250565b6000612dd1602a836123e1565b9150612ddc82612d75565b604082019050919050565b60006020820190508181036000830152612e0081612dc4565b9050919050565b7f5345434f4e445f574f5244000000000000000000000000000000000000000000600082015250565b6000612e3d600b83612baa565b9150612e4882612e07565b600b82019050919050565b6000612e5e82612e30565b9150612e6a8284612c01565b915081905092915050565b7f54484952445f574f524400000000000000000000000000000000000000000000600082015250565b6000612eab600a83612baa565b9150612eb682612e75565b600a82019050919050565b6000612ecc82612e9e565b9150612ed88284612c01565b915081905092915050565b7f45524337323155524953746f726167653a2055524920717565727920666f722060008201527f6e6f6e6578697374656e7420746f6b656e000000000000000000000000000000602082015250565b6000612f3f6031836123e1565b9150612f4a82612ee3565b604082019050919050565b60006020820190508181036000830152612f6e81612f32565b9050919050565b6000612f818285612c01565b9150612f8d8284612c01565b91508190509392505050565b7f596f75206861766520616c7265616479206d696e746564206d617820616d6f7560008201527f6e74206f6620746f6b656e732100000000000000000000000000000000000000602082015250565b6000612ff5602d836123e1565b915061300082612f99565b604082019050919050565b6000602082019050818103600083015261302481612fe8565b9050919050565b60006130378286612c01565b91506130438285612c01565b915061304f8284612c01565b9150819050949350505050565b60008190508160005260206000209050919050565b6000815461307e81612930565b6130888186612baa565b945060018216600081146130a357600181146130b4576130e7565b60ff198316865281860193506130e7565b6130bd8561305c565b60005b838110156130df578154818901526001820191506020810190506130c0565b838801955050505b50505092915050565b7f3c2f746578743e3c2f7376673e00000000000000000000000000000000000000600082015250565b6000613126600d83612baa565b9150613131826130f0565b600d82019050919050565b60006131488285613071565b91506131548284612c01565b915061315f82613119565b91508190509392505050565b7f7b226e616d65223a202200000000000000000000000000000000000000000000600082015250565b60006131a1600a83612baa565b91506131ac8261316b565b600a82019050919050565b7f222c20226465736372697074696f6e223a202245616368206e667420636f6e7460008201527f61696e203320776f7264732c20776869636820646573637269626520796f757260208201527f20726f6c6520696e2063727970746f222c2022696d616765223a20226461746160408201527f3a696d6167652f7376672b786d6c3b6261736536342c00000000000000000000606082015250565b600061325f607683612baa565b915061326a826131b7565b607682019050919050565b7f227d000000000000000000000000000000000000000000000000000000000000600082015250565b60006132ab600283612baa565b91506132b682613275565b600282019050919050565b60006132cc82613194565b91506132d88285612c01565b91506132e382613252565b91506132ef8284612c01565b91506132fa8261329e565b91508190509392505050565b7f646174613a6170706c69636174696f6e2f6a736f6e3b6261736536342c000000600082015250565b600061333c601d83612baa565b915061334782613306565b601d82019050919050565b600061335d8261332f565b91506133698284612c01565b915081905092915050565b7f68747470733a2f2f6e6674707265766965772e30786465762e636f6465732f3f60008201527f636f64653d000000000000000000000000000000000000000000000000000000602082015250565b60006133d0602583612baa565b91506133db82613374565b602582019050919050565b60006133f1826133c3565b91506133fd8284612c01565b915081905092915050565b7f4e487b7100000000000000000000000000000000000000000000000000000000600052601160045260246000fd5b60006134428261288a565b915060ff82141561345657613455613408565b5b600182019050919050565b7f4552433732313a206f70657261746f7220717565727920666f72206e6f6e657860008201527f697374656e7420746f6b656e0000000000000000000000000000000000000000602082015250565b60006134bd602c836123e1565b91506134c882613461565b604082019050919050565b600060208201905081810360008301526134ec816134b0565b9050919050565b7f4552433732313a207472616e736665722066726f6d20696e636f72726563742060008201527f6f776e6572000000000000000000000000000000000000000000000000000000602082015250565b600061354f6025836123e1565b915061355a826134f3565b604082019050919050565b6000602082019050818103600083015261357e81613542565b9050919050565b7f4552433732313a207472616e7366657220746f20746865207a65726f2061646460008201527f7265737300000000000000000000000000000000000000000000000000000000602082015250565b60006135e16024836123e1565b91506135ec82613585565b604082019050919050565b60006020820190508181036000830152613610816135d4565b9050919050565b600061362282612491565b915061362d83612491565b9250828210156136405761363f613408565b5b828203905092915050565b600061365682612491565b915061366183612491565b9250827fffffffffffffffffffffffffffffffffffffffffffffffffffffffffffffffff0382111561369657613695613408565b5b828201905092915050565b60006136ac82612491565b91507fffffffffffffffffffffffffffffffffffffffffffffffffffffffffffffffff8214156136df576136de613408565b5b600182019050919050565b60006136f582612491565b915061370083612491565b9250826137105761370f612c54565b5b828204905092915050565b6000613726826124f4565b9050919050565b60008160601b9050919050565b60006137458261372d565b9050919050565b60006137578261373a565b9050919050565b61376f61376a8261371b565b61374c565b82525050565b6000819050919050565b61379061378b82612491565b613775565b82525050565b60006137a28288612c01565b91506137ae828761375e565b6014820191506137be828661377f565b6020820191506137ce828561377f565b6020820191506137de828461377f565b6020820191508190509695505050505050565b7f4552433732313a20617070726f766520746f2063616c6c657200000000000000600082015250565b60006138276019836123e1565b9150613832826137f1565b602082019050919050565b600060208201905081810360008301526138568161381a565b9050919050565b7f4552433732313a207472616e7366657220746f206e6f6e20455243373231526560008201527f63656976657220696d706c656d656e7465720000000000000000000000000000602082015250565b60006138b96032836123e1565b91506138c48261385d565b604082019050919050565b600060208201905081810360008301526138e8816138ac565b9050919050565b7f4552433732314d657461646174613a2055524920717565727920666f72206e6f60008201527f6e6578697374656e7420746f6b656e0000000000000000000000000000000000602082015250565b600061394b602f836123e1565b9150613956826138ef565b604082019050919050565b6000602082019050818103600083015261397a8161393e565b9050919050565b600061398c82612491565b915061399783612491565b9250817fffffffffffffffffffffffffffffffffffffffffffffffffffffffffffffffff04831182151516156139d0576139cf613408565b5b828202905092915050565b7f45524337323155524953746f726167653a2055524920736574206f66206e6f6e60008201527f6578697374656e7420746f6b656e000000000000000000000000000000000000602082015250565b6000613a37602e836123e1565b9150613a42826139db565b604082019050919050565b60006020820190508181036000830152613a6681613a2a565b9050919050565b60006060820190508181036000830152613a878186612436565b9050613a96602083018561263c565b613aa36040830184612526565b949350505050565b600081519050919050565b600082825260208201905092915050565b6000613ad282613aab565b613adc8185613ab6565b9350613aec8185602086016123f2565b613af581612425565b840191505092915050565b6000608082019050613b156000830187612526565b613b226020830186612526565b613b2f604083018561263c565b8181036060830152613b418184613ac7565b905095945050505050565b600081519050613b5b81612347565b92915050565b600060208284031215613b7757613b76612311565b5b6000613b8584828501613b4c565b91505092915050565b7f4552433732313a206d696e7420746f20746865207a65726f2061646472657373600082015250565b6000613bc46020836123e1565b9150613bcf82613b8e565b602082019050919050565b60006020820190508181036000830152613bf381613bb7565b9050919050565b7f4552433732313a20746f6b656e20616c7265616479206d696e74656400000000600082015250565b6000613c30601c836123e1565b9150613c3b82613bfa565b602082019050919050565b60006020820190508181036000830152613c5f81613c23565b905091905056fe4142434445464748494a4b4c4d4e4f505152535455565758595a6162636465666768696a6b6c6d6e6f707172737475767778797a303132333435363738392b2f416e204e4654207769746820494420257320686173206265656e206d696e74656420746f202573a2646970667358221220b4bfcf978f595ab2c9d9df05666554391dedce52262121217ab9758f9bdc0bba64736f6c634300080900333c73766720786d6c6e733d27687474703a2f2f7777772e77332e6f72672f323030302f73766727207072657365727665417370656374526174696f3d27784d696e594d696e206d656574272076696577426f783d273020302033353020333530273e3c7374796c653e2e62617365207b2066696c6c3a2077686974653b20666f6e742d66616d696c793a2073657269663b20666f6e742d73697a653a20323470783b207d3c2f7374796c653e3c726563742077696474683d273130302527206865696768743d2731303025272066696c6c3d27626c61636b27202f3e3c7465787420783d273530252720793d273530252720636c6173733d27626173652720646f6d696e616e742d626173656c696e653d276d6964646c652720746578742d616e63686f723d276d6964646c65273e",
  "linkReferences": {},
  "deployedLinkReferences": {}
}